{
  "contractName": "Governance",
  "abi": [
    {
      "inputs": [
        {
          "internalType": "uint256",
          "name": "",
          "type": "uint256"
        }
      ],
      "name": "spaceList",
      "outputs": [
        {
          "internalType": "bytes32",
          "name": "",
          "type": "bytes32"
        }
      ],
      "stateMutability": "view",
      "type": "function",
      "constant": true
    },
    {
      "inputs": [],
      "name": "getAllSpaces",
      "outputs": [
        {
          "internalType": "bytes32[]",
          "name": "",
          "type": "bytes32[]"
        }
      ],
      "stateMutability": "view",
      "type": "function",
      "constant": true
    },
    {
      "inputs": [
        {
          "internalType": "bytes32",
          "name": "_spaceKey",
          "type": "bytes32"
        },
        {
          "internalType": "bytes32",
          "name": "_name",
          "type": "bytes32"
        },
        {
          "internalType": "bytes32",
          "name": "_symbol",
          "type": "bytes32"
        },
        {
          "internalType": "address",
          "name": "_tokenAddress",
          "type": "address"
        },
        {
          "internalType": "contract IStrategy",
          "name": "_strategy",
          "type": "address"
        }
      ],
      "name": "newSpace",
      "outputs": [
        {
          "internalType": "bool",
          "name": "success",
          "type": "bool"
        }
      ],
      "stateMutability": "nonpayable",
      "type": "function"
    },
    {
      "inputs": [
        {
          "internalType": "bytes32",
          "name": "_spaceKey",
          "type": "bytes32"
        },
        {
          "internalType": "bytes32",
          "name": "_name",
          "type": "bytes32"
        },
        {
          "internalType": "bytes32",
          "name": "_symbol",
          "type": "bytes32"
        },
        {
          "internalType": "address",
          "name": "_tokenAddress",
          "type": "address"
        },
        {
          "internalType": "contract IStrategy",
          "name": "_strategy",
          "type": "address"
        }
      ],
      "name": "updateSpace",
      "outputs": [
        {
          "internalType": "bool",
          "name": "success",
          "type": "bool"
        }
      ],
      "stateMutability": "nonpayable",
      "type": "function"
    },
    {
      "inputs": [
        {
          "internalType": "bytes32",
          "name": "_spaceKey",
          "type": "bytes32"
        }
      ],
      "name": "getSpace",
      "outputs": [
        {
          "components": [
            {
              "internalType": "bytes32",
              "name": "name",
              "type": "bytes32"
            },
            {
              "internalType": "bytes32",
              "name": "symbol",
              "type": "bytes32"
            },
            {
              "internalType": "address",
              "name": "tokenAddress",
              "type": "address"
            },
            {
              "internalType": "bytes32[]",
              "name": "proposalList",
              "type": "bytes32[]"
            },
            {
              "internalType": "contract IStrategy",
              "name": "strategy",
              "type": "address"
            }
          ],
          "internalType": "struct Governance.Space",
          "name": "",
          "type": "tuple"
        }
      ],
      "stateMutability": "view",
      "type": "function",
      "constant": true
    },
    {
      "inputs": [
        {
          "internalType": "bytes32",
          "name": "_spaceKey",
          "type": "bytes32"
        },
        {
          "internalType": "bytes32",
          "name": "_proposalId",
          "type": "bytes32"
        },
        {
          "internalType": "string",
          "name": "_txHash",
          "type": "string"
        },
        {
          "internalType": "uint256",
          "name": "_startTime",
          "type": "uint256"
        },
        {
          "internalType": "uint256",
          "name": "_endTime",
          "type": "uint256"
        },
        {
          "internalType": "uint256",
          "name": "_blockNumber",
          "type": "uint256"
        },
        {
          "internalType": "uint8",
          "name": "_numberOfChoices",
          "type": "uint8"
        }
      ],
      "name": "newProposal",
      "outputs": [],
      "stateMutability": "nonpayable",
      "type": "function"
    },
    {
      "inputs": [
        {
          "internalType": "bytes32",
          "name": "_proposalId",
          "type": "bytes32"
        },
        {
          "internalType": "uint256",
          "name": "choiceIndex",
          "type": "uint256"
        }
      ],
      "name": "vote",
      "outputs": [],
      "stateMutability": "payable",
      "type": "function",
      "payable": true
    }
  ],
  "bytecode": "0x608060405234801561001057600080fd5b5061147b806100206000396000f3fe6080604052600436106100705760003560e01c80639ef1204c1161004e5780639ef1204c14610106578063e1f0a60614610122578063e8232fe71461015f578063ebcf8a821461019c57610070565b806323015acf146100755780634d9623a8146100b2578063785c242a146100dd575b600080fd5b34801561008157600080fd5b5061009c60048036038101906100979190610ded565b6101d9565b6040516100a99190611065565b60405180910390f35b3480156100be57600080fd5b506100c76101fd565b6040516100d49190611028565b60405180910390f35b3480156100e957600080fd5b5061010460048036038101906100ff9190610cfb565b610255565b005b610120600480360381019061011b9190610db1565b61041a565b005b34801561012e57600080fd5b5061014960048036038101906101449190610c84565b61060c565b604051610156919061104a565b60405180910390f35b34801561016b57600080fd5b5061018660048036038101906101819190610c5b565b610776565b60405161019391906110a0565b60405180910390f35b3480156101a857600080fd5b506101c360048036038101906101be9190610c84565b6108bb565b6040516101d0919061104a565b60405180910390f35b600081815481106101e957600080fd5b906000526020600020016000915090505481565b6060600080548060200260200160405190810160405280929190818152602001828054801561024b57602002820191906000526020600020905b815481526020019060010190808311610237575b5050505050905090565b8460036000888152602001908152602001600020600001908051906020019061027f929190610a17565b508360036000888152602001908152602001600020600101819055508260036000888152602001908152602001600020600201819055508160036000888152602001908152602001600020600301819055508060ff166003600088815260200190815260200160002060040181905550600260008881526020019081526020016000206005600088815260200190815260200160002060008201548160000155600182015481600101556002820160009054906101000a900473ffffffffffffffffffffffffffffffffffffffff168160020160006101000a81548173ffffffffffffffffffffffffffffffffffffffff021916908373ffffffffffffffffffffffffffffffffffffffff16021790555060038201816003019080546103a6929190610a9d565b506004820160009054906101000a900473ffffffffffffffffffffffffffffffffffffffff168160040160006101000a81548173ffffffffffffffffffffffffffffffffffffffff021916908373ffffffffffffffffffffffffffffffffffffffff16021790555090505050505050505050565b60011515600460003385604051602001610435929190610ffc565b60405160208183030381529060405280519060200120815260200190815260200160002060009054906101000a900460ff161515146104a9576040517f08c379a00000000000000000000000000000000000000000000000000000000081526004016104a090611080565b60405180910390fd5b6000600a9050600060405180606001604052808381526020013373ffffffffffffffffffffffffffffffffffffffff168152602001848152509050600360008581526020019081526020016000206006018190806001815401808255809150506001900390600052602060002090600302016000909190919091506000820151816000015560208201518160010160006101000a81548173ffffffffffffffffffffffffffffffffffffffff021916908373ffffffffffffffffffffffffffffffffffffffff16021790555060408201518160020155505080600001516003600086815260200190815260200160002060050160008282546105ab9190611173565b9250508190555060016004600033876040516020016105cb929190610ffc565b60405160208183030381529060405280519060200120815260200190815260200160002060006101000a81548160ff02191690831515021790555050505050565b6000846002600088815260200190815260200160002060000181905550836002600088815260200190815260200160002060010181905550826002600088815260200190815260200160002060020160006101000a81548173ffffffffffffffffffffffffffffffffffffffff021916908373ffffffffffffffffffffffffffffffffffffffff160217905550816002600088815260200190815260200160002060040160006101000a81548173ffffffffffffffffffffffffffffffffffffffff021916908373ffffffffffffffffffffffffffffffffffffffff1602179055506000869080600181540180825580915050600190039060005260206000200160009091909190915055336001600088815260200190815260200160002060006101000a81548173ffffffffffffffffffffffffffffffffffffffff021916908373ffffffffffffffffffffffffffffffffffffffff1602179055506001905095945050505050565b61077e610aef565b600260008381526020019081526020016000206040518060a001604052908160008201548152602001600182015481526020016002820160009054906101000a900473ffffffffffffffffffffffffffffffffffffffff1673ffffffffffffffffffffffffffffffffffffffff1673ffffffffffffffffffffffffffffffffffffffff1681526020016003820180548060200260200160405190810160405280929190818152602001828054801561085557602002820191906000526020600020905b815481526020019060010190808311610841575b505050505081526020016004820160009054906101000a900473ffffffffffffffffffffffffffffffffffffffff1673ffffffffffffffffffffffffffffffffffffffff1673ffffffffffffffffffffffffffffffffffffffff16815250509050919050565b6000853373ffffffffffffffffffffffffffffffffffffffff166001600083815260200190815260200160002060009054906101000a900473ffffffffffffffffffffffffffffffffffffffff1673ffffffffffffffffffffffffffffffffffffffff161461092957600080fd5b856002600089815260200190815260200160002060000181905550846002600089815260200190815260200160002060010181905550836002600089815260200190815260200160002060020160006101000a81548173ffffffffffffffffffffffffffffffffffffffff021916908373ffffffffffffffffffffffffffffffffffffffff160217905550826002600089815260200190815260200160002060040160006101000a81548173ffffffffffffffffffffffffffffffffffffffff021916908373ffffffffffffffffffffffffffffffffffffffff160217905550600191505095945050505050565b828054610a239061126d565b90600052602060002090601f016020900481019282610a455760008555610a8c565b82601f10610a5e57805160ff1916838001178555610a8c565b82800160010185558215610a8c579182015b82811115610a8b578251825591602001919060010190610a70565b5b509050610a999190610b50565b5090565b828054828255906000526020600020908101928215610ade5760005260206000209182015b82811115610add578254825591600101919060010190610ac2565b5b509050610aeb9190610b6d565b5090565b6040518060a001604052806000801916815260200160008019168152602001600073ffffffffffffffffffffffffffffffffffffffff16815260200160608152602001600073ffffffffffffffffffffffffffffffffffffffff1681525090565b5b80821115610b69576000816000905550600101610b51565b5090565b5b80821115610b86576000816000905550600101610b6e565b5090565b6000610b9d610b98846110e7565b6110c2565b905082815260208101848484011115610bb557600080fd5b610bc084828561125e565b509392505050565b600081359050610bd7816113d2565b92915050565b600081359050610bec816113e9565b92915050565b600081359050610c0181611400565b92915050565b600082601f830112610c1857600080fd5b8135610c28848260208601610b8a565b91505092915050565b600081359050610c4081611417565b92915050565b600081359050610c558161142e565b92915050565b600060208284031215610c6d57600080fd5b6000610c7b84828501610bdd565b91505092915050565b600080600080600060a08688031215610c9c57600080fd5b6000610caa88828901610bdd565b9550506020610cbb88828901610bdd565b9450506040610ccc88828901610bdd565b9350506060610cdd88828901610bc8565b9250506080610cee88828901610bf2565b9150509295509295909350565b600080600080600080600060e0888a031215610d1657600080fd5b6000610d248a828b01610bdd565b9750506020610d358a828b01610bdd565b965050604088013567ffffffffffffffff811115610d5257600080fd5b610d5e8a828b01610c07565b9550506060610d6f8a828b01610c31565b9450506080610d808a828b01610c31565b93505060a0610d918a828b01610c31565b92505060c0610da28a828b01610c46565b91505092959891949750929550565b60008060408385031215610dc457600080fd5b6000610dd285828601610bdd565b9250506020610de385828601610c31565b9150509250929050565b600060208284031215610dff57600080fd5b6000610e0d84828501610c31565b91505092915050565b6000610e228383610f1f565b60208301905092915050565b610e37816111c9565b82525050565b610e4e610e49826111c9565b6112d0565b82525050565b6000610e5f82611128565b610e698185611140565b9350610e7483611118565b8060005b83811015610ea5578151610e8c8882610e16565b9750610e9783611133565b925050600181019050610e78565b5085935050505092915050565b6000610ebd82611128565b610ec78185611151565b9350610ed283611118565b8060005b83811015610f03578151610eea8882610e16565b9750610ef583611133565b925050600181019050610ed6565b5085935050505092915050565b610f19816111db565b82525050565b610f28816111e7565b82525050565b610f37816111e7565b82525050565b610f4e610f49826111e7565b6112e2565b82525050565b610f5d8161123a565b82525050565b6000610f70600d83611162565b9150610f7b826113a9565b602082019050919050565b600060a083016000830151610f9e6000860182610f1f565b506020830151610fb16020860182610f1f565b506040830151610fc46040860182610e2e565b5060608301518482036060860152610fdc8282610e54565b9150506080830151610ff16080860182610f54565b508091505092915050565b60006110088285610e3d565b6014820191506110188284610f3d565b6020820191508190509392505050565b600060208201905081810360008301526110428184610eb2565b905092915050565b600060208201905061105f6000830184610f10565b92915050565b600060208201905061107a6000830184610f2e565b92915050565b6000602082019050818103600083015261109981610f63565b9050919050565b600060208201905081810360008301526110ba8184610f86565b905092915050565b60006110cc6110dd565b90506110d8828261129f565b919050565b6000604051905090565b600067ffffffffffffffff8211156111025761110161135c565b5b61110b8261138b565b9050602081019050919050565b6000819050602082019050919050565b600081519050919050565b6000602082019050919050565b600082825260208201905092915050565b600082825260208201905092915050565b600082825260208201905092915050565b600061117e82611223565b915061118983611223565b9250827fffffffffffffffffffffffffffffffffffffffffffffffffffffffffffffffff038211156111be576111bd6112fe565b5b828201905092915050565b60006111d482611203565b9050919050565b60008115159050919050565b6000819050919050565b60006111fc826111c9565b9050919050565b600073ffffffffffffffffffffffffffffffffffffffff82169050919050565b6000819050919050565b600060ff82169050919050565b60006112458261124c565b9050919050565b600061125782611203565b9050919050565b82818337600083830152505050565b6000600282049050600182168061128557607f821691505b602082108114156112995761129861132d565b5b50919050565b6112a88261138b565b810181811067ffffffffffffffff821117156112c7576112c661135c565b5b80604052505050565b60006112db826112ec565b9050919050565b6000819050919050565b60006112f78261139c565b9050919050565b7f4e487b7100000000000000000000000000000000000000000000000000000000600052601160045260246000fd5b7f4e487b7100000000000000000000000000000000000000000000000000000000600052602260045260246000fd5b7f4e487b7100000000000000000000000000000000000000000000000000000000600052604160045260246000fd5b6000601f19601f8301169050919050565b60008160601b9050919050565b7f416c726561647920766f74656400000000000000000000000000000000000000600082015250565b6113db816111c9565b81146113e657600080fd5b50565b6113f2816111e7565b81146113fd57600080fd5b50565b611409816111f1565b811461141457600080fd5b50565b61142081611223565b811461142b57600080fd5b50565b6114378161122d565b811461144257600080fd5b5056fea264697066735822122058eb306f9190398d2cbab9bf6ea875b9dcbc889d0239c18c76654b6ec7e190fd64736f6c63430008040033",
  "immutableReferences": {},
  "source": "// SPDX-License-Identifier: MIT\n\npragma solidity 0.8.4;\n\nimport \"./interfaces/IStrategy.sol\";\n\ncontract Governance {\n    struct Voter {\n        uint256 power;\n        address voter;\n        uint256 choiceIndex;\n    }\n\n    struct Proposal {\n        string txHash;\n        uint256 startTime;\n        uint256 endTime;\n        uint256 blockNumber;\n        uint256 numberOfChoices;\n        uint256 voteCount;\n        Voter[] voterList;\n    }\n\n    struct Space {\n        bytes32 name;\n        bytes32 symbol;\n        address tokenAddress;\n        bytes32[] proposalList;\n        IStrategy strategy;\n    }\n\n    bytes32[] public spaceList; // list of proposal keys so we can look them up\n    mapping(bytes32 => address) private spaceToOwner;\n    mapping(bytes32 => Space) private spaceStructs; // random access by space key and proposal key\n    mapping(bytes32 => Proposal) private proposalStructs; // proposalId => Proposal\n    mapping(bytes32 => bool) private voted; // check if address has voted for a proposal by hash(address, proposalId)\n    mapping(bytes32 => Space) private proposalToSpace; // proposalId => space contains that proposal\n\n    modifier onlyOwnerOf(bytes32 _spaceKey) {\n        require(spaceToOwner[_spaceKey] == msg.sender);\n        _;\n    }\n\n    function getAllSpaces() external view returns (bytes32[] memory) {\n        return spaceList;\n    }\n\n    function newSpace(\n        bytes32 _spaceKey,\n        bytes32 _name,\n        bytes32 _symbol,\n        address _tokenAddress,\n        IStrategy _strategy\n    ) external returns (bool success) {\n        spaceStructs[_spaceKey].name = _name;\n        spaceStructs[_spaceKey].symbol = _symbol;\n        spaceStructs[_spaceKey].tokenAddress = _tokenAddress;\n        spaceStructs[_spaceKey].strategy = _strategy;\n        spaceList.push(_spaceKey);\n        spaceToOwner[_spaceKey] = msg.sender;\n        return true;\n    }\n\n    function updateSpace(\n        bytes32 _spaceKey,\n        bytes32 _name,\n        bytes32 _symbol,\n        address _tokenAddress,\n        IStrategy _strategy\n    ) external onlyOwnerOf(_spaceKey) returns (bool success) {\n        spaceStructs[_spaceKey].name = _name;\n        spaceStructs[_spaceKey].symbol = _symbol;\n        spaceStructs[_spaceKey].tokenAddress = _tokenAddress;\n        spaceStructs[_spaceKey].strategy = _strategy;\n        return true;\n    }\n\n    function getSpace(bytes32 _spaceKey) public view returns (Space memory) {\n        return spaceStructs[_spaceKey];\n    }\n\n    function newProposal(\n        bytes32 _spaceKey,\n        bytes32 _proposalId,\n        string memory _txHash,\n        uint256 _startTime,\n        uint256 _endTime,\n        uint256 _blockNumber,\n        uint8 _numberOfChoices\n    ) public {\n        // require(spaceStructs[_spaceKey].tokenAddress != address(0));\n\n        proposalStructs[_proposalId].txHash = _txHash;\n        proposalStructs[_proposalId].startTime = _startTime;\n        proposalStructs[_proposalId].endTime = _endTime;\n        proposalStructs[_proposalId].blockNumber = _blockNumber;\n        proposalStructs[_proposalId].numberOfChoices = _numberOfChoices;\n        // spaceStructs[_spaceKey].proposalList.push(_proposalId);\n        proposalToSpace[_proposalId] = spaceStructs[_spaceKey];\n    }\n\n    function vote(bytes32 _proposalId, uint256 choiceIndex) public payable {\n        // check if voted \n        require(voted[keccak256(abi.encodePacked(msg.sender, _proposalId))] == true, \"Already voted\");\n\n        // TODO: check ended\n        \n        // get voting power\n        uint256 power = 10;\n        // uint256 power = proposalToSpace[_proposalId].strategy.getVotingPower(msg.sender);\n\n        // vote\n        Voter memory voter = Voter(power, msg.sender, choiceIndex);\n        proposalStructs[_proposalId].voterList.push(voter);\n        proposalStructs[_proposalId].voteCount += voter.power;\n        voted[keccak256(abi.encodePacked(msg.sender, _proposalId))] = true;\n    }\n}\n",
  "sourcePath": "/Users/phuong/go/src/github.com/fomodoro/fomodoro/contracts/Governance.sol",
  "compiler": {
    "name": "solc",
    "version": "0.8.4+commit.c7e474f2.Emscripten.clang"
  },
  "schemaVersion": "3.4.1",
  "updatedAt": "2021-05-24T14:41:29.606Z",
  "networkType": "ethereum",
  "devdoc": {
    "kind": "dev",
    "methods": {},
    "version": 1
  },
  "userdoc": {
    "kind": "user",
    "methods": {},
    "version": 1
  }
}