{
  "contractName": "Governance",
  "abi": [
    {
      "inputs": [
        {
          "internalType": "uint256",
          "name": "",
          "type": "uint256"
        }
      ],
      "name": "spaceList",
      "outputs": [
        {
          "internalType": "bytes32",
          "name": "",
          "type": "bytes32"
        }
      ],
      "stateMutability": "view",
      "type": "function",
      "constant": true
    },
    {
      "inputs": [],
      "name": "getAllSpaces",
      "outputs": [
        {
          "internalType": "bytes32[]",
          "name": "",
          "type": "bytes32[]"
        }
      ],
      "stateMutability": "view",
      "type": "function",
      "constant": true
    },
    {
      "inputs": [
        {
          "internalType": "bytes32",
          "name": "_spaceKey",
          "type": "bytes32"
        },
        {
          "internalType": "bytes32",
          "name": "_name",
          "type": "bytes32"
        },
        {
          "internalType": "bytes32",
          "name": "_symbol",
          "type": "bytes32"
        },
        {
          "internalType": "contract IBEP20",
          "name": "_token",
          "type": "address"
        },
        {
          "internalType": "contract IStrategy",
          "name": "_strategy",
          "type": "address"
        }
      ],
      "name": "newSpace",
      "outputs": [
        {
          "internalType": "bool",
          "name": "success",
          "type": "bool"
        }
      ],
      "stateMutability": "nonpayable",
      "type": "function"
    },
    {
      "inputs": [
        {
          "internalType": "bytes32",
          "name": "_spaceKey",
          "type": "bytes32"
        },
        {
          "internalType": "bytes32",
          "name": "_name",
          "type": "bytes32"
        },
        {
          "internalType": "bytes32",
          "name": "_symbol",
          "type": "bytes32"
        },
        {
          "internalType": "contract IBEP20",
          "name": "_token",
          "type": "address"
        },
        {
          "internalType": "contract IStrategy",
          "name": "_strategy",
          "type": "address"
        }
      ],
      "name": "updateSpace",
      "outputs": [
        {
          "internalType": "bool",
          "name": "success",
          "type": "bool"
        }
      ],
      "stateMutability": "nonpayable",
      "type": "function"
    },
    {
      "inputs": [
        {
          "internalType": "bytes32",
          "name": "_spaceKey",
          "type": "bytes32"
        }
      ],
      "name": "getSpace",
      "outputs": [
        {
          "components": [
            {
              "internalType": "bytes32",
              "name": "name",
              "type": "bytes32"
            },
            {
              "internalType": "bytes32",
              "name": "symbol",
              "type": "bytes32"
            },
            {
              "internalType": "contract IBEP20",
              "name": "token",
              "type": "address"
            },
            {
              "internalType": "contract IStrategy",
              "name": "strategy",
              "type": "address"
            },
            {
              "internalType": "bytes32[]",
              "name": "proposalList",
              "type": "bytes32[]"
            }
          ],
          "internalType": "struct Governance.Space",
          "name": "",
          "type": "tuple"
        }
      ],
      "stateMutability": "view",
      "type": "function",
      "constant": true
    },
    {
      "inputs": [
        {
          "internalType": "bytes32",
          "name": "_spaceKey",
          "type": "bytes32"
        }
      ],
      "name": "getProposals",
      "outputs": [
        {
          "internalType": "bytes32[]",
          "name": "",
          "type": "bytes32[]"
        }
      ],
      "stateMutability": "view",
      "type": "function",
      "constant": true
    },
    {
      "inputs": [
        {
          "internalType": "bytes32",
          "name": "_proposalKey",
          "type": "bytes32"
        }
      ],
      "name": "getProposal",
      "outputs": [
        {
          "components": [
            {
              "internalType": "string",
              "name": "txHash",
              "type": "string"
            },
            {
              "internalType": "uint256",
              "name": "startTime",
              "type": "uint256"
            },
            {
              "internalType": "uint256",
              "name": "endTime",
              "type": "uint256"
            },
            {
              "internalType": "uint256",
              "name": "blockNumber",
              "type": "uint256"
            },
            {
              "internalType": "uint256",
              "name": "numberOfChoices",
              "type": "uint256"
            },
            {
              "internalType": "uint256",
              "name": "voteCount",
              "type": "uint256"
            },
            {
              "components": [
                {
                  "internalType": "uint256",
                  "name": "power",
                  "type": "uint256"
                },
                {
                  "internalType": "address",
                  "name": "voter",
                  "type": "address"
                },
                {
                  "internalType": "uint256",
                  "name": "choiceIndex",
                  "type": "uint256"
                }
              ],
              "internalType": "struct Governance.Voter[]",
              "name": "voterList",
              "type": "tuple[]"
            }
          ],
          "internalType": "struct Governance.Proposal",
          "name": "",
          "type": "tuple"
        }
      ],
      "stateMutability": "view",
      "type": "function",
      "constant": true
    },
    {
      "inputs": [
        {
          "internalType": "bytes32",
          "name": "_spaceKey",
          "type": "bytes32"
        },
        {
          "internalType": "bytes32",
          "name": "_proposalId",
          "type": "bytes32"
        },
        {
          "internalType": "string",
          "name": "_txHash",
          "type": "string"
        },
        {
          "internalType": "uint256",
          "name": "_startTime",
          "type": "uint256"
        },
        {
          "internalType": "uint256",
          "name": "_endTime",
          "type": "uint256"
        },
        {
          "internalType": "uint256",
          "name": "_blockNumber",
          "type": "uint256"
        },
        {
          "internalType": "uint8",
          "name": "_numberOfChoices",
          "type": "uint8"
        }
      ],
      "name": "newProposal",
      "outputs": [],
      "stateMutability": "nonpayable",
      "type": "function"
    },
    {
      "inputs": [
        {
          "internalType": "bytes32",
          "name": "_voterKey",
          "type": "bytes32"
        }
      ],
      "name": "getVoter",
      "outputs": [
        {
          "components": [
            {
              "internalType": "uint256",
              "name": "power",
              "type": "uint256"
            },
            {
              "internalType": "address",
              "name": "voter",
              "type": "address"
            },
            {
              "internalType": "uint256",
              "name": "choiceIndex",
              "type": "uint256"
            }
          ],
          "internalType": "struct Governance.Voter",
          "name": "",
          "type": "tuple"
        }
      ],
      "stateMutability": "view",
      "type": "function",
      "constant": true
    },
    {
      "inputs": [
        {
          "internalType": "bytes32",
          "name": "_proposalId",
          "type": "bytes32"
        },
        {
          "internalType": "uint256",
          "name": "choiceIndex",
          "type": "uint256"
        }
      ],
      "name": "vote",
      "outputs": [],
      "stateMutability": "payable",
      "type": "function",
      "payable": true
    }
  ],
  "bytecode": "0x608060405234801561001057600080fd5b50611bb2806100206000396000f3fe6080604052600436106100915760003560e01c80639ef1204c116100595780639ef1204c146101a1578063d8e63542146101bd578063e1f0a606146101fa578063e8232fe714610237578063ebcf8a821461027457610091565b80631c42a6941461009657806323015acf146100d3578063430694cf146101105780634d9623a81461014d578063785c242a14610178575b600080fd5b3480156100a257600080fd5b506100bd60048036038101906100b891906110a3565b6102b1565b6040516100ca9190611664565b60405180910390f35b3480156100df57600080fd5b506100fa60048036038101906100f59190611235565b61031f565b60405161010791906116a1565b60405180910390f35b34801561011c57600080fd5b50610137600480360381019061013291906110a3565b610343565b60405161014491906116dc565b60405180910390f35b34801561015957600080fd5b506101626104fd565b60405161016f9190611664565b60405180910390f35b34801561018457600080fd5b5061019f600480360381019061019a9190611143565b610555565b005b6101bb60048036038101906101b691906111f9565b610757565b005b3480156101c957600080fd5b506101e460048036038101906101df91906110a3565b610949565b6040516101f19190611720565b60405180910390f35b34801561020657600080fd5b50610221600480360381019061021c91906110cc565b6109e0565b60405161022e9190611686565b60405180910390f35b34801561024357600080fd5b5061025e600480360381019061025991906110a3565b610b4a565b60405161026b91906116fe565b60405180910390f35b34801561028057600080fd5b5061029b600480360381019061029691906110cc565b610c8f565b6040516102a89190611686565b60405180910390f35b60606002600083815260200190815260200160002060040180548060200260200160405190810160405280929190818152602001828054801561031357602002820191906000526020600020905b8154815260200190600101908083116102ff575b50505050509050919050565b6000818154811061032f57600080fd5b906000526020600020016000915090505481565b61034b610deb565b600360008381526020019081526020016000206040518060e0016040529081600082018054610379906119a4565b80601f01602080910402602001604051908101604052809291908181526020018280546103a5906119a4565b80156103f25780601f106103c7576101008083540402835291602001916103f2565b820191906000526020600020905b8154815290600101906020018083116103d557829003601f168201915b50505050508152602001600182015481526020016002820154815260200160038201548152602001600482015481526020016005820154815260200160068201805480602002602001604051908101604052809291908181526020016000905b828210156104ee5783829060005260206000209060030201604051806060016040529081600082015481526020016001820160009054906101000a900473ffffffffffffffffffffffffffffffffffffffff1673ffffffffffffffffffffffffffffffffffffffff1673ffffffffffffffffffffffffffffffffffffffff16815260200160028201548152505081526020019060010190610452565b50505050815250509050919050565b6060600080548060200260200160405190810160405280929190818152602001828054801561054b57602002820191906000526020600020905b815481526020019060010190808311610537575b5050505050905090565b8460036000888152602001908152602001600020600001908051906020019061057f929190610e28565b508360036000888152602001908152602001600020600101819055508260036000888152602001908152602001600020600201819055508160036000888152602001908152602001600020600301819055508060ff166003600088815260200190815260200160002060040181905550600260008881526020019081526020016000206006600088815260200190815260200160002060008201548160000155600182015481600101556002820160009054906101000a900473ffffffffffffffffffffffffffffffffffffffff168160020160006101000a81548173ffffffffffffffffffffffffffffffffffffffff021916908373ffffffffffffffffffffffffffffffffffffffff1602179055506003820160009054906101000a900473ffffffffffffffffffffffffffffffffffffffff168160030160006101000a81548173ffffffffffffffffffffffffffffffffffffffff021916908373ffffffffffffffffffffffffffffffffffffffff160217905550600482018160040190805461070d929190610eae565b509050506002600088815260200190815260200160002060040186908060018154018082558091505060019003906000526020600020016000909190919091505550505050505050565b60011515600560003385604051602001610772929190611638565b60405160208183030381529060405280519060200120815260200190815260200160002060009054906101000a900460ff161515146107e6576040517f08c379a00000000000000000000000000000000000000000000000000000000081526004016107dd906116bc565b60405180910390fd5b6000600a9050600060405180606001604052808381526020013373ffffffffffffffffffffffffffffffffffffffff168152602001848152509050600360008581526020019081526020016000206006018190806001815401808255809150506001900390600052602060002090600302016000909190919091506000820151816000015560208201518160010160006101000a81548173ffffffffffffffffffffffffffffffffffffffff021916908373ffffffffffffffffffffffffffffffffffffffff16021790555060408201518160020155505080600001516003600086815260200190815260200160002060050160008282546108e89190611841565b925050819055506001600560003387604051602001610908929190611638565b60405160208183030381529060405280519060200120815260200190815260200160002060006101000a81548160ff02191690831515021790555050505050565b610951610f00565b60046000838152602001908152602001600020604051806060016040529081600082015481526020016001820160009054906101000a900473ffffffffffffffffffffffffffffffffffffffff1673ffffffffffffffffffffffffffffffffffffffff1673ffffffffffffffffffffffffffffffffffffffff1681526020016002820154815250509050919050565b6000846002600088815260200190815260200160002060000181905550836002600088815260200190815260200160002060010181905550826002600088815260200190815260200160002060020160006101000a81548173ffffffffffffffffffffffffffffffffffffffff021916908373ffffffffffffffffffffffffffffffffffffffff160217905550816002600088815260200190815260200160002060030160006101000a81548173ffffffffffffffffffffffffffffffffffffffff021916908373ffffffffffffffffffffffffffffffffffffffff1602179055506000869080600181540180825580915050600190039060005260206000200160009091909190915055336001600088815260200190815260200160002060006101000a81548173ffffffffffffffffffffffffffffffffffffffff021916908373ffffffffffffffffffffffffffffffffffffffff1602179055506001905095945050505050565b610b52610f37565b600260008381526020019081526020016000206040518060a001604052908160008201548152602001600182015481526020016002820160009054906101000a900473ffffffffffffffffffffffffffffffffffffffff1673ffffffffffffffffffffffffffffffffffffffff1673ffffffffffffffffffffffffffffffffffffffff1681526020016003820160009054906101000a900473ffffffffffffffffffffffffffffffffffffffff1673ffffffffffffffffffffffffffffffffffffffff1673ffffffffffffffffffffffffffffffffffffffff16815260200160048201805480602002602001604051908101604052809291908181526020018280548015610c7f57602002820191906000526020600020905b815481526020019060010190808311610c6b575b5050505050815250509050919050565b6000853373ffffffffffffffffffffffffffffffffffffffff166001600083815260200190815260200160002060009054906101000a900473ffffffffffffffffffffffffffffffffffffffff1673ffffffffffffffffffffffffffffffffffffffff1614610cfd57600080fd5b856002600089815260200190815260200160002060000181905550846002600089815260200190815260200160002060010181905550836002600089815260200190815260200160002060020160006101000a81548173ffffffffffffffffffffffffffffffffffffffff021916908373ffffffffffffffffffffffffffffffffffffffff160217905550826002600089815260200190815260200160002060030160006101000a81548173ffffffffffffffffffffffffffffffffffffffff021916908373ffffffffffffffffffffffffffffffffffffffff160217905550600191505095945050505050565b6040518060e00160405280606081526020016000815260200160008152602001600081526020016000815260200160008152602001606081525090565b828054610e34906119a4565b90600052602060002090601f016020900481019282610e565760008555610e9d565b82601f10610e6f57805160ff1916838001178555610e9d565b82800160010185558215610e9d579182015b82811115610e9c578251825591602001919060010190610e81565b5b509050610eaa9190610f98565b5090565b828054828255906000526020600020908101928215610eef5760005260206000209182015b82811115610eee578254825591600101919060010190610ed3565b5b509050610efc9190610fb5565b5090565b604051806060016040528060008152602001600073ffffffffffffffffffffffffffffffffffffffff168152602001600081525090565b6040518060a001604052806000801916815260200160008019168152602001600073ffffffffffffffffffffffffffffffffffffffff168152602001600073ffffffffffffffffffffffffffffffffffffffff168152602001606081525090565b5b80821115610fb1576000816000905550600101610f99565b5090565b5b80821115610fce576000816000905550600101610fb6565b5090565b6000610fe5610fe084611760565b61173b565b905082815260208101848484011115610ffd57600080fd5b611008848285611962565b509392505050565b60008135905061101f81611b09565b92915050565b60008135905061103481611b20565b92915050565b60008135905061104981611b37565b92915050565b600082601f83011261106057600080fd5b8135611070848260208601610fd2565b91505092915050565b60008135905061108881611b4e565b92915050565b60008135905061109d81611b65565b92915050565b6000602082840312156110b557600080fd5b60006110c384828501611010565b91505092915050565b600080600080600060a086880312156110e457600080fd5b60006110f288828901611010565b955050602061110388828901611010565b945050604061111488828901611010565b935050606061112588828901611025565b92505060806111368882890161103a565b9150509295509295909350565b600080600080600080600060e0888a03121561115e57600080fd5b600061116c8a828b01611010565b975050602061117d8a828b01611010565b965050604088013567ffffffffffffffff81111561119a57600080fd5b6111a68a828b0161104f565b95505060606111b78a828b01611079565b94505060806111c88a828b01611079565b93505060a06111d98a828b01611079565b92505060c06111ea8a828b0161108e565b91505092959891949750929550565b6000806040838503121561120c57600080fd5b600061121a85828601611010565b925050602061122b85828601611079565b9150509250929050565b60006020828403121561124757600080fd5b600061125584828501611079565b91505092915050565b600061126a83836113dd565b60208301905092915050565b600061128283836115a5565b60608301905092915050565b61129781611897565b82525050565b6112ae6112a982611897565b611a07565b82525050565b60006112bf826117b1565b6112c981856117ec565b93506112d483611791565b8060005b838110156113055781516112ec888261125e565b97506112f7836117d2565b9250506001810190506112d8565b5085935050505092915050565b600061131d826117b1565b61132781856117fd565b935061133283611791565b8060005b8381101561136357815161134a888261125e565b9750611355836117d2565b925050600181019050611336565b5085935050505092915050565b600061137b826117bc565b611385818561180e565b9350611390836117a1565b8060005b838110156113c15781516113a88882611276565b97506113b3836117df565b925050600181019050611394565b5085935050505092915050565b6113d7816118a9565b82525050565b6113e6816118b5565b82525050565b6113f5816118b5565b82525050565b61140c611407826118b5565b611a19565b82525050565b61141b8161191a565b82525050565b61142a8161193e565b82525050565b600061143b826117c7565b611445818561181f565b9350611455818560208601611971565b61145e81611ac2565b840191505092915050565b6000611476600d83611830565b915061148182611ae0565b602082019050919050565b600060e08301600083015184820360008601526114a98282611430565b91505060208301516114be6020860182611629565b5060408301516114d16040860182611629565b5060608301516114e46060860182611629565b5060808301516114f76080860182611629565b5060a083015161150a60a0860182611629565b5060c083015184820360c08601526115228282611370565b9150508091505092915050565b600060a08301600083015161154760008601826113dd565b50602083015161155a60208601826113dd565b50604083015161156d6040860182611412565b5060608301516115806060860182611421565b506080830151848203608086015261159882826112b4565b9150508091505092915050565b6060820160008201516115bb6000850182611629565b5060208201516115ce602085018261128e565b5060408201516115e16040850182611629565b50505050565b6060820160008201516115fd6000850182611629565b506020820151611610602085018261128e565b5060408201516116236040850182611629565b50505050565b61163281611903565b82525050565b6000611644828561129d565b60148201915061165482846113fb565b6020820191508190509392505050565b6000602082019050818103600083015261167e8184611312565b905092915050565b600060208201905061169b60008301846113ce565b92915050565b60006020820190506116b660008301846113ec565b92915050565b600060208201905081810360008301526116d581611469565b9050919050565b600060208201905081810360008301526116f6818461148c565b905092915050565b60006020820190508181036000830152611718818461152f565b905092915050565b600060608201905061173560008301846115e7565b92915050565b6000611745611756565b905061175182826119d6565b919050565b6000604051905090565b600067ffffffffffffffff82111561177b5761177a611a93565b5b61178482611ac2565b9050602081019050919050565b6000819050602082019050919050565b6000819050602082019050919050565b600081519050919050565b600081519050919050565b600081519050919050565b6000602082019050919050565b6000602082019050919050565b600082825260208201905092915050565b600082825260208201905092915050565b600082825260208201905092915050565b600082825260208201905092915050565b600082825260208201905092915050565b600061184c82611903565b915061185783611903565b9250827fffffffffffffffffffffffffffffffffffffffffffffffffffffffffffffffff0382111561188c5761188b611a35565b5b828201905092915050565b60006118a2826118e3565b9050919050565b60008115159050919050565b6000819050919050565b60006118ca82611897565b9050919050565b60006118dc82611897565b9050919050565b600073ffffffffffffffffffffffffffffffffffffffff82169050919050565b6000819050919050565b600060ff82169050919050565b60006119258261192c565b9050919050565b6000611937826118e3565b9050919050565b600061194982611950565b9050919050565b600061195b826118e3565b9050919050565b82818337600083830152505050565b60005b8381101561198f578082015181840152602081019050611974565b8381111561199e576000848401525b50505050565b600060028204905060018216806119bc57607f821691505b602082108114156119d0576119cf611a64565b5b50919050565b6119df82611ac2565b810181811067ffffffffffffffff821117156119fe576119fd611a93565b5b80604052505050565b6000611a1282611a23565b9050919050565b6000819050919050565b6000611a2e82611ad3565b9050919050565b7f4e487b7100000000000000000000000000000000000000000000000000000000600052601160045260246000fd5b7f4e487b7100000000000000000000000000000000000000000000000000000000600052602260045260246000fd5b7f4e487b7100000000000000000000000000000000000000000000000000000000600052604160045260246000fd5b6000601f19601f8301169050919050565b60008160601b9050919050565b7f416c726561647920766f74656400000000000000000000000000000000000000600082015250565b611b12816118b5565b8114611b1d57600080fd5b50565b611b29816118bf565b8114611b3457600080fd5b50565b611b40816118d1565b8114611b4b57600080fd5b50565b611b5781611903565b8114611b6257600080fd5b50565b611b6e8161190d565b8114611b7957600080fd5b5056fea26469706673582212203bb25f1aeb32d6485df932652e5a7b6c9acf6213ddf4b8940194bd0870e5f74564736f6c63430008040033",
  "immutableReferences": {},
  "source": "// SPDX-License-Identifier: MIT\n\npragma solidity 0.8.4;\n\nimport \"./interfaces/IStrategy.sol\";\nimport \"./interfaces/IBEP20.sol\";\n\ncontract Governance {\n    struct Voter {\n        uint256 power;\n        address voter;\n        uint256 choiceIndex;\n    }\n\n    struct Proposal {\n        string txHash;\n        uint256 startTime;\n        uint256 endTime;\n        uint256 blockNumber;\n        uint256 numberOfChoices;\n        uint256 voteCount;\n        Voter[] voterList;\n    }\n\n    struct Space {\n        bytes32 name;\n        bytes32 symbol;\n        IBEP20 token;\n        IStrategy strategy;\n        bytes32[] proposalList;\n    }\n\n    bytes32[] public spaceList; // list of proposal keys so we can look them up\n    mapping(bytes32 => address) private spaceToOwner;\n    mapping(bytes32 => Space) private spaceStructs; // random access by space key and proposal key\n    mapping(bytes32 => Proposal) private proposalStructs; // proposalId => Proposal\n    mapping(bytes32 => Voter) private voterStructs;\n    mapping(bytes32 => bool) private voted; // check if address has voted for a proposal by hash(address, proposalId)\n    mapping(bytes32 => Space) private proposalToSpace; // proposalId => space contains that proposal\n\n    modifier onlyOwnerOf(bytes32 _spaceKey) {\n        require(spaceToOwner[_spaceKey] == msg.sender);\n        _;\n    }\n\n    function getAllSpaces() external view returns (bytes32[] memory) {\n        return spaceList;\n    }\n\n    function newSpace(\n        bytes32 _spaceKey,\n        bytes32 _name,\n        bytes32 _symbol,\n        IBEP20 _token,\n        IStrategy _strategy\n    ) external returns (bool success) {\n        spaceStructs[_spaceKey].name = _name;\n        spaceStructs[_spaceKey].symbol = _symbol;\n        spaceStructs[_spaceKey].token = _token;\n        spaceStructs[_spaceKey].strategy = _strategy;\n        spaceList.push(_spaceKey);\n        spaceToOwner[_spaceKey] = msg.sender;\n        return true;\n    }\n\n    function updateSpace(\n        bytes32 _spaceKey,\n        bytes32 _name,\n        bytes32 _symbol,\n        IBEP20 _token,\n        IStrategy _strategy\n    ) external onlyOwnerOf(_spaceKey) returns (bool success) {\n        spaceStructs[_spaceKey].name = _name;\n        spaceStructs[_spaceKey].symbol = _symbol;\n        spaceStructs[_spaceKey].token = _token;\n        spaceStructs[_spaceKey].strategy = _strategy;\n        return true;\n    }\n\n    function getSpace(bytes32 _spaceKey) external view returns (Space memory) {\n        return spaceStructs[_spaceKey];\n    }\n\n    function getProposals(bytes32 _spaceKey) external view returns (bytes32[] memory) {\n        return spaceStructs[_spaceKey].proposalList;\n    }\n\n    function getProposal(bytes32 _proposalKey) external view returns (Proposal memory) {\n        return proposalStructs[_proposalKey];\n    }\n\n    function newProposal(\n        bytes32 _spaceKey,\n        bytes32 _proposalId,\n        string memory _txHash,\n        uint256 _startTime,\n        uint256 _endTime,\n        uint256 _blockNumber,\n        uint8 _numberOfChoices\n    ) public {\n        // require(spaceStructs[_spaceKey].tokenAddress != address(0));\n\n        proposalStructs[_proposalId].txHash = _txHash;\n        proposalStructs[_proposalId].startTime = _startTime;\n        proposalStructs[_proposalId].endTime = _endTime;\n        proposalStructs[_proposalId].blockNumber = _blockNumber;\n        proposalStructs[_proposalId].numberOfChoices = _numberOfChoices;\n        proposalToSpace[_proposalId] = spaceStructs[_spaceKey];\n\n        spaceStructs[_spaceKey].proposalList.push(_proposalId);\n    }\n\n    function getVoter(bytes32 _voterKey) external view returns (Voter memory) {\n        return voterStructs[_voterKey];\n    }\n\n    function vote(bytes32 _proposalId, uint256 choiceIndex) public payable {\n        // check if voted \n        require(voted[keccak256(abi.encodePacked(msg.sender, _proposalId))] == true, \"Already voted\");\n\n        // TODO: check ended\n        \n        // get voting power\n        uint256 power = 10;\n        // uint256 power = proposalToSpace[_proposalId].strategy.getVotingPower(msg.sender);\n\n        // vote\n        Voter memory voter = Voter(power, msg.sender, choiceIndex);\n        proposalStructs[_proposalId].voterList.push(voter);\n        proposalStructs[_proposalId].voteCount += voter.power;\n        voted[keccak256(abi.encodePacked(msg.sender, _proposalId))] = true;\n    }\n}\n",
  "sourcePath": "/Users/phucld/Projects/blockchain/Fomodoro/contracts/Governance.sol",
  "compiler": {
    "name": "solc",
    "version": "0.8.4+commit.c7e474f2.Emscripten.clang"
  },
  "schemaVersion": "3.4.1",
  "updatedAt": "2021-05-25T13:08:53.108Z",
  "networkType": "ethereum",
  "devdoc": {
    "kind": "dev",
    "methods": {},
    "version": 1
  },
  "userdoc": {
    "kind": "user",
    "methods": {},
    "version": 1
  }
}