{
  "contractName": "Governance",
  "abi": [
    {
      "inputs": [
        {
          "internalType": "uint256",
          "name": "",
          "type": "uint256"
        }
      ],
      "name": "spaceList",
      "outputs": [
        {
          "internalType": "bytes32",
          "name": "",
          "type": "bytes32"
        }
      ],
      "stateMutability": "view",
      "type": "function",
      "constant": true
    },
    {
      "inputs": [],
      "name": "getAllSpaces",
      "outputs": [
        {
          "internalType": "bytes32[]",
          "name": "",
          "type": "bytes32[]"
        }
      ],
      "stateMutability": "view",
      "type": "function",
      "constant": true
    },
    {
      "inputs": [
        {
          "internalType": "bytes32",
          "name": "_spaceKey",
          "type": "bytes32"
        },
        {
          "internalType": "bytes32",
          "name": "_name",
          "type": "bytes32"
        },
        {
          "internalType": "bytes32",
          "name": "_symbol",
          "type": "bytes32"
        },
        {
          "internalType": "contract IBEP20",
          "name": "_token",
          "type": "address"
        },
        {
          "internalType": "contract IStrategy",
          "name": "_strategy",
          "type": "address"
        }
      ],
      "name": "newSpace",
      "outputs": [
        {
          "internalType": "bool",
          "name": "success",
          "type": "bool"
        }
      ],
      "stateMutability": "nonpayable",
      "type": "function"
    },
    {
      "inputs": [
        {
          "internalType": "bytes32",
          "name": "_spaceKey",
          "type": "bytes32"
        },
        {
          "internalType": "bytes32",
          "name": "_name",
          "type": "bytes32"
        },
        {
          "internalType": "bytes32",
          "name": "_symbol",
          "type": "bytes32"
        },
        {
          "internalType": "contract IBEP20",
          "name": "_token",
          "type": "address"
        },
        {
          "internalType": "contract IStrategy",
          "name": "_strategy",
          "type": "address"
        }
      ],
      "name": "updateSpace",
      "outputs": [
        {
          "internalType": "bool",
          "name": "success",
          "type": "bool"
        }
      ],
      "stateMutability": "nonpayable",
      "type": "function"
    },
    {
      "inputs": [
        {
          "internalType": "bytes32",
          "name": "_spaceKey",
          "type": "bytes32"
        }
      ],
      "name": "getSpace",
      "outputs": [
        {
          "components": [
            {
              "internalType": "bytes32",
              "name": "name",
              "type": "bytes32"
            },
            {
              "internalType": "bytes32",
              "name": "symbol",
              "type": "bytes32"
            },
            {
              "internalType": "contract IBEP20",
              "name": "token",
              "type": "address"
            },
            {
              "internalType": "contract IStrategy",
              "name": "strategy",
              "type": "address"
            },
            {
              "internalType": "bytes32[]",
              "name": "proposalList",
              "type": "bytes32[]"
            }
          ],
          "internalType": "struct Governance.Space",
          "name": "",
          "type": "tuple"
        }
      ],
      "stateMutability": "view",
      "type": "function",
      "constant": true
    },
    {
      "inputs": [
        {
          "internalType": "bytes32",
          "name": "_spaceKey",
          "type": "bytes32"
        }
      ],
      "name": "getProposals",
      "outputs": [
        {
          "internalType": "bytes32[]",
          "name": "",
          "type": "bytes32[]"
        }
      ],
      "stateMutability": "view",
      "type": "function",
      "constant": true
    },
    {
      "inputs": [
        {
          "internalType": "bytes32",
          "name": "_proposalKey",
          "type": "bytes32"
        }
      ],
      "name": "getProposal",
      "outputs": [
        {
          "components": [
            {
              "internalType": "string",
              "name": "txHash",
              "type": "string"
            },
            {
              "internalType": "uint256",
              "name": "startTime",
              "type": "uint256"
            },
            {
              "internalType": "uint256",
              "name": "endTime",
              "type": "uint256"
            },
            {
              "internalType": "uint256",
              "name": "blockNumber",
              "type": "uint256"
            },
            {
              "internalType": "uint256",
              "name": "numberOfChoices",
              "type": "uint256"
            },
            {
              "internalType": "uint256",
              "name": "voteCount",
              "type": "uint256"
            },
            {
              "components": [
                {
                  "internalType": "uint256",
                  "name": "power",
                  "type": "uint256"
                },
                {
                  "internalType": "address",
                  "name": "voter",
                  "type": "address"
                },
                {
                  "internalType": "uint256",
                  "name": "choiceIndex",
                  "type": "uint256"
                }
              ],
              "internalType": "struct Governance.Voter[]",
              "name": "voterList",
              "type": "tuple[]"
            }
          ],
          "internalType": "struct Governance.Proposal",
          "name": "",
          "type": "tuple"
        }
      ],
      "stateMutability": "view",
      "type": "function",
      "constant": true
    },
    {
      "inputs": [
        {
          "internalType": "bytes32",
          "name": "_spaceKey",
          "type": "bytes32"
        },
        {
          "internalType": "bytes32",
          "name": "_proposalId",
          "type": "bytes32"
        },
        {
          "internalType": "string",
          "name": "_txHash",
          "type": "string"
        },
        {
          "internalType": "uint256",
          "name": "_startTime",
          "type": "uint256"
        },
        {
          "internalType": "uint256",
          "name": "_endTime",
          "type": "uint256"
        },
        {
          "internalType": "uint256",
          "name": "_blockNumber",
          "type": "uint256"
        },
        {
          "internalType": "uint8",
          "name": "_numberOfChoices",
          "type": "uint8"
        }
      ],
      "name": "newProposal",
      "outputs": [],
      "stateMutability": "nonpayable",
      "type": "function"
    },
    {
      "inputs": [
        {
          "internalType": "bytes32",
          "name": "_proposalId",
          "type": "bytes32"
        },
        {
          "internalType": "uint256",
          "name": "choiceIndex",
          "type": "uint256"
        }
      ],
      "name": "vote",
      "outputs": [],
      "stateMutability": "payable",
      "type": "function",
      "payable": true
    }
  ],
  "bytecode": "0x608060405234801561001057600080fd5b50611a3f806100206000396000f3fe6080604052600436106100865760003560e01c8063785c242a11610059578063785c242a1461016d5780639ef1204c14610196578063e1f0a606146101b2578063e8232fe7146101ef578063ebcf8a821461022c57610086565b80631c42a6941461008b57806323015acf146100c8578063430694cf146101055780634d9623a814610142575b600080fd5b34801561009757600080fd5b506100b260048036038101906100ad9190610f8d565b610269565b6040516100bf919061150c565b60405180910390f35b3480156100d457600080fd5b506100ef60048036038101906100ea919061111f565b6102d7565b6040516100fc9190611549565b60405180910390f35b34801561011157600080fd5b5061012c60048036038101906101279190610f8d565b6102fb565b6040516101399190611584565b60405180910390f35b34801561014e57600080fd5b506101576104b5565b604051610164919061150c565b60405180910390f35b34801561017957600080fd5b50610194600480360381019061018f919061102d565b61050d565b005b6101b060048036038101906101ab91906110e3565b61070f565b005b3480156101be57600080fd5b506101d960048036038101906101d49190610fb6565b610901565b6040516101e6919061152e565b60405180910390f35b3480156101fb57600080fd5b5061021660048036038101906102119190610f8d565b610a6b565b60405161022391906115a6565b60405180910390f35b34801561023857600080fd5b50610253600480360381019061024e9190610fb6565b610bb0565b604051610260919061152e565b60405180910390f35b6060600260008381526020019081526020016000206004018054806020026020016040519081016040528092919081815260200182805480156102cb57602002820191906000526020600020905b8154815260200190600101908083116102b7575b50505050509050919050565b600081815481106102e757600080fd5b906000526020600020016000915090505481565b610303610d0c565b600360008381526020019081526020016000206040518060e001604052908160008201805461033190611831565b80601f016020809104026020016040519081016040528092919081815260200182805461035d90611831565b80156103aa5780601f1061037f576101008083540402835291602001916103aa565b820191906000526020600020905b81548152906001019060200180831161038d57829003601f168201915b50505050508152602001600182015481526020016002820154815260200160038201548152602001600482015481526020016005820154815260200160068201805480602002602001604051908101604052809291908181526020016000905b828210156104a65783829060005260206000209060030201604051806060016040529081600082015481526020016001820160009054906101000a900473ffffffffffffffffffffffffffffffffffffffff1673ffffffffffffffffffffffffffffffffffffffff1673ffffffffffffffffffffffffffffffffffffffff1681526020016002820154815250508152602001906001019061040a565b50505050815250509050919050565b6060600080548060200260200160405190810160405280929190818152602001828054801561050357602002820191906000526020600020905b8154815260200190600101908083116104ef575b5050505050905090565b84600360008881526020019081526020016000206000019080519060200190610537929190610d49565b508360036000888152602001908152602001600020600101819055508260036000888152602001908152602001600020600201819055508160036000888152602001908152602001600020600301819055508060ff166003600088815260200190815260200160002060040181905550600260008881526020019081526020016000206005600088815260200190815260200160002060008201548160000155600182015481600101556002820160009054906101000a900473ffffffffffffffffffffffffffffffffffffffff168160020160006101000a81548173ffffffffffffffffffffffffffffffffffffffff021916908373ffffffffffffffffffffffffffffffffffffffff1602179055506003820160009054906101000a900473ffffffffffffffffffffffffffffffffffffffff168160030160006101000a81548173ffffffffffffffffffffffffffffffffffffffff021916908373ffffffffffffffffffffffffffffffffffffffff16021790555060048201816004019080546106c5929190610dcf565b509050506002600088815260200190815260200160002060040186908060018154018082558091505060019003906000526020600020016000909190919091505550505050505050565b6001151560046000338560405160200161072a9291906114e0565b60405160208183030381529060405280519060200120815260200190815260200160002060009054906101000a900460ff1615151461079e576040517f08c379a000000000000000000000000000000000000000000000000000000000815260040161079590611564565b60405180910390fd5b6000600a9050600060405180606001604052808381526020013373ffffffffffffffffffffffffffffffffffffffff168152602001848152509050600360008581526020019081526020016000206006018190806001815401808255809150506001900390600052602060002090600302016000909190919091506000820151816000015560208201518160010160006101000a81548173ffffffffffffffffffffffffffffffffffffffff021916908373ffffffffffffffffffffffffffffffffffffffff16021790555060408201518160020155505080600001516003600086815260200190815260200160002060050160008282546108a091906116ce565b9250508190555060016004600033876040516020016108c09291906114e0565b60405160208183030381529060405280519060200120815260200190815260200160002060006101000a81548160ff02191690831515021790555050505050565b6000846002600088815260200190815260200160002060000181905550836002600088815260200190815260200160002060010181905550826002600088815260200190815260200160002060020160006101000a81548173ffffffffffffffffffffffffffffffffffffffff021916908373ffffffffffffffffffffffffffffffffffffffff160217905550816002600088815260200190815260200160002060030160006101000a81548173ffffffffffffffffffffffffffffffffffffffff021916908373ffffffffffffffffffffffffffffffffffffffff1602179055506000869080600181540180825580915050600190039060005260206000200160009091909190915055336001600088815260200190815260200160002060006101000a81548173ffffffffffffffffffffffffffffffffffffffff021916908373ffffffffffffffffffffffffffffffffffffffff1602179055506001905095945050505050565b610a73610e21565b600260008381526020019081526020016000206040518060a001604052908160008201548152602001600182015481526020016002820160009054906101000a900473ffffffffffffffffffffffffffffffffffffffff1673ffffffffffffffffffffffffffffffffffffffff1673ffffffffffffffffffffffffffffffffffffffff1681526020016003820160009054906101000a900473ffffffffffffffffffffffffffffffffffffffff1673ffffffffffffffffffffffffffffffffffffffff1673ffffffffffffffffffffffffffffffffffffffff16815260200160048201805480602002602001604051908101604052809291908181526020018280548015610ba057602002820191906000526020600020905b815481526020019060010190808311610b8c575b5050505050815250509050919050565b6000853373ffffffffffffffffffffffffffffffffffffffff166001600083815260200190815260200160002060009054906101000a900473ffffffffffffffffffffffffffffffffffffffff1673ffffffffffffffffffffffffffffffffffffffff1614610c1e57600080fd5b856002600089815260200190815260200160002060000181905550846002600089815260200190815260200160002060010181905550836002600089815260200190815260200160002060020160006101000a81548173ffffffffffffffffffffffffffffffffffffffff021916908373ffffffffffffffffffffffffffffffffffffffff160217905550826002600089815260200190815260200160002060030160006101000a81548173ffffffffffffffffffffffffffffffffffffffff021916908373ffffffffffffffffffffffffffffffffffffffff160217905550600191505095945050505050565b6040518060e00160405280606081526020016000815260200160008152602001600081526020016000815260200160008152602001606081525090565b828054610d5590611831565b90600052602060002090601f016020900481019282610d775760008555610dbe565b82601f10610d9057805160ff1916838001178555610dbe565b82800160010185558215610dbe579182015b82811115610dbd578251825591602001919060010190610da2565b5b509050610dcb9190610e82565b5090565b828054828255906000526020600020908101928215610e105760005260206000209182015b82811115610e0f578254825591600101919060010190610df4565b5b509050610e1d9190610e9f565b5090565b6040518060a001604052806000801916815260200160008019168152602001600073ffffffffffffffffffffffffffffffffffffffff168152602001600073ffffffffffffffffffffffffffffffffffffffff168152602001606081525090565b5b80821115610e9b576000816000905550600101610e83565b5090565b5b80821115610eb8576000816000905550600101610ea0565b5090565b6000610ecf610eca846115ed565b6115c8565b905082815260208101848484011115610ee757600080fd5b610ef28482856117ef565b509392505050565b600081359050610f0981611996565b92915050565b600081359050610f1e816119ad565b92915050565b600081359050610f33816119c4565b92915050565b600082601f830112610f4a57600080fd5b8135610f5a848260208601610ebc565b91505092915050565b600081359050610f72816119db565b92915050565b600081359050610f87816119f2565b92915050565b600060208284031215610f9f57600080fd5b6000610fad84828501610efa565b91505092915050565b600080600080600060a08688031215610fce57600080fd5b6000610fdc88828901610efa565b9550506020610fed88828901610efa565b9450506040610ffe88828901610efa565b935050606061100f88828901610f0f565b925050608061102088828901610f24565b9150509295509295909350565b600080600080600080600060e0888a03121561104857600080fd5b60006110568a828b01610efa565b97505060206110678a828b01610efa565b965050604088013567ffffffffffffffff81111561108457600080fd5b6110908a828b01610f39565b95505060606110a18a828b01610f63565b94505060806110b28a828b01610f63565b93505060a06110c38a828b01610f63565b92505060c06110d48a828b01610f78565b91505092959891949750929550565b600080604083850312156110f657600080fd5b600061110485828601610efa565b925050602061111585828601610f63565b9150509250929050565b60006020828403121561113157600080fd5b600061113f84828501610f63565b91505092915050565b600061115483836112c7565b60208301905092915050565b600061116c838361148f565b60608301905092915050565b61118181611724565b82525050565b61119861119382611724565b611894565b82525050565b60006111a98261163e565b6111b38185611679565b93506111be8361161e565b8060005b838110156111ef5781516111d68882611148565b97506111e18361165f565b9250506001810190506111c2565b5085935050505092915050565b60006112078261163e565b611211818561168a565b935061121c8361161e565b8060005b8381101561124d5781516112348882611148565b975061123f8361165f565b925050600181019050611220565b5085935050505092915050565b600061126582611649565b61126f818561169b565b935061127a8361162e565b8060005b838110156112ab5781516112928882611160565b975061129d8361166c565b92505060018101905061127e565b5085935050505092915050565b6112c181611736565b82525050565b6112d081611742565b82525050565b6112df81611742565b82525050565b6112f66112f182611742565b6118a6565b82525050565b611305816117a7565b82525050565b611314816117cb565b82525050565b600061132582611654565b61132f81856116ac565b935061133f8185602086016117fe565b6113488161194f565b840191505092915050565b6000611360600d836116bd565b915061136b8261196d565b602082019050919050565b600060e0830160008301518482036000860152611393828261131a565b91505060208301516113a860208601826114d1565b5060408301516113bb60408601826114d1565b5060608301516113ce60608601826114d1565b5060808301516113e160808601826114d1565b5060a08301516113f460a08601826114d1565b5060c083015184820360c086015261140c828261125a565b9150508091505092915050565b600060a08301600083015161143160008601826112c7565b50602083015161144460208601826112c7565b50604083015161145760408601826112fc565b50606083015161146a606086018261130b565b5060808301518482036080860152611482828261119e565b9150508091505092915050565b6060820160008201516114a560008501826114d1565b5060208201516114b86020850182611178565b5060408201516114cb60408501826114d1565b50505050565b6114da81611790565b82525050565b60006114ec8285611187565b6014820191506114fc82846112e5565b6020820191508190509392505050565b6000602082019050818103600083015261152681846111fc565b905092915050565b600060208201905061154360008301846112b8565b92915050565b600060208201905061155e60008301846112d6565b92915050565b6000602082019050818103600083015261157d81611353565b9050919050565b6000602082019050818103600083015261159e8184611376565b905092915050565b600060208201905081810360008301526115c08184611419565b905092915050565b60006115d26115e3565b90506115de8282611863565b919050565b6000604051905090565b600067ffffffffffffffff82111561160857611607611920565b5b6116118261194f565b9050602081019050919050565b6000819050602082019050919050565b6000819050602082019050919050565b600081519050919050565b600081519050919050565b600081519050919050565b6000602082019050919050565b6000602082019050919050565b600082825260208201905092915050565b600082825260208201905092915050565b600082825260208201905092915050565b600082825260208201905092915050565b600082825260208201905092915050565b60006116d982611790565b91506116e483611790565b9250827fffffffffffffffffffffffffffffffffffffffffffffffffffffffffffffffff03821115611719576117186118c2565b5b828201905092915050565b600061172f82611770565b9050919050565b60008115159050919050565b6000819050919050565b600061175782611724565b9050919050565b600061176982611724565b9050919050565b600073ffffffffffffffffffffffffffffffffffffffff82169050919050565b6000819050919050565b600060ff82169050919050565b60006117b2826117b9565b9050919050565b60006117c482611770565b9050919050565b60006117d6826117dd565b9050919050565b60006117e882611770565b9050919050565b82818337600083830152505050565b60005b8381101561181c578082015181840152602081019050611801565b8381111561182b576000848401525b50505050565b6000600282049050600182168061184957607f821691505b6020821081141561185d5761185c6118f1565b5b50919050565b61186c8261194f565b810181811067ffffffffffffffff8211171561188b5761188a611920565b5b80604052505050565b600061189f826118b0565b9050919050565b6000819050919050565b60006118bb82611960565b9050919050565b7f4e487b7100000000000000000000000000000000000000000000000000000000600052601160045260246000fd5b7f4e487b7100000000000000000000000000000000000000000000000000000000600052602260045260246000fd5b7f4e487b7100000000000000000000000000000000000000000000000000000000600052604160045260246000fd5b6000601f19601f8301169050919050565b60008160601b9050919050565b7f416c726561647920766f74656400000000000000000000000000000000000000600082015250565b61199f81611742565b81146119aa57600080fd5b50565b6119b68161174c565b81146119c157600080fd5b50565b6119cd8161175e565b81146119d857600080fd5b50565b6119e481611790565b81146119ef57600080fd5b50565b6119fb8161179a565b8114611a0657600080fd5b5056fea264697066735822122005f81333af1d473c97ab8137beb319c9ab3cfb722994793a7110b50b2903d94a64736f6c63430008040033",
  "immutableReferences": {},
  "source": "// SPDX-License-Identifier: MIT\n\npragma solidity 0.8.4;\n\nimport \"./interfaces/IStrategy.sol\";\nimport \"./interfaces/IBEP20.sol\";\n\ncontract Governance {\n    struct Voter {\n        uint256 power;\n        address voter;\n        uint256 choiceIndex;\n    }\n\n    struct Proposal {\n        string txHash;\n        uint256 startTime;\n        uint256 endTime;\n        uint256 blockNumber;\n        uint256 numberOfChoices;\n        uint256 voteCount;\n        Voter[] voterList;\n    }\n\n    struct Space {\n        bytes32 name;\n        bytes32 symbol;\n        IBEP20 token;\n        IStrategy strategy;\n        bytes32[] proposalList;\n    }\n\n    bytes32[] public spaceList; // list of proposal keys so we can look them up\n    mapping(bytes32 => address) private spaceToOwner;\n    mapping(bytes32 => Space) private spaceStructs; // random access by space key and proposal key\n    mapping(bytes32 => Proposal) private proposalStructs; // proposalId => Proposal\n    mapping(bytes32 => bool) private voted; // check if address has voted for a proposal by hash(address, proposalId)\n    mapping(bytes32 => Space) private proposalToSpace; // proposalId => space contains that proposal\n\n    modifier onlyOwnerOf(bytes32 _spaceKey) {\n        require(spaceToOwner[_spaceKey] == msg.sender);\n        _;\n    }\n\n    function getAllSpaces() external view returns (bytes32[] memory) {\n        return spaceList;\n    }\n\n    function newSpace(\n        bytes32 _spaceKey,\n        bytes32 _name,\n        bytes32 _symbol,\n        IBEP20 _token,\n        IStrategy _strategy\n    ) external returns (bool success) {\n        spaceStructs[_spaceKey].name = _name;\n        spaceStructs[_spaceKey].symbol = _symbol;\n        spaceStructs[_spaceKey].token = _token;\n        spaceStructs[_spaceKey].strategy = _strategy;\n        spaceList.push(_spaceKey);\n        spaceToOwner[_spaceKey] = msg.sender;\n        return true;\n    }\n\n    function updateSpace(\n        bytes32 _spaceKey,\n        bytes32 _name,\n        bytes32 _symbol,\n        IBEP20 _token,\n        IStrategy _strategy\n    ) external onlyOwnerOf(_spaceKey) returns (bool success) {\n        spaceStructs[_spaceKey].name = _name;\n        spaceStructs[_spaceKey].symbol = _symbol;\n        spaceStructs[_spaceKey].token = _token;\n        spaceStructs[_spaceKey].strategy = _strategy;\n        return true;\n    }\n\n    function getSpace(bytes32 _spaceKey) external view returns (Space memory) {\n        return spaceStructs[_spaceKey];\n    }\n\n    function getProposals(bytes32 _spaceKey) external view returns (bytes32[] memory) {\n        return spaceStructs[_spaceKey].proposalList;\n    }\n\n    function getProposal(bytes32 _proposalKey) external view returns (Proposal memory) {\n        return proposalStructs[_proposalKey];\n    }\n\n    function newProposal(\n        bytes32 _spaceKey,\n        bytes32 _proposalId,\n        string memory _txHash,\n        uint256 _startTime,\n        uint256 _endTime,\n        uint256 _blockNumber,\n        uint8 _numberOfChoices\n    ) public {\n        // require(spaceStructs[_spaceKey].tokenAddress != address(0));\n\n        proposalStructs[_proposalId].txHash = _txHash;\n        proposalStructs[_proposalId].startTime = _startTime;\n        proposalStructs[_proposalId].endTime = _endTime;\n        proposalStructs[_proposalId].blockNumber = _blockNumber;\n        proposalStructs[_proposalId].numberOfChoices = _numberOfChoices;\n        proposalToSpace[_proposalId] = spaceStructs[_spaceKey];\n\n        spaceStructs[_spaceKey].proposalList.push(_proposalId);\n    }\n\n    function vote(bytes32 _proposalId, uint256 choiceIndex) public payable {\n        // check if voted \n        require(voted[keccak256(abi.encodePacked(msg.sender, _proposalId))] == true, \"Already voted\");\n\n        // TODO: check ended\n        \n        // get voting power\n        uint256 power = 10;\n        // uint256 power = proposalToSpace[_proposalId].strategy.getVotingPower(msg.sender);\n\n        // vote\n        Voter memory voter = Voter(power, msg.sender, choiceIndex);\n        proposalStructs[_proposalId].voterList.push(voter);\n        proposalStructs[_proposalId].voteCount += voter.power;\n        voted[keccak256(abi.encodePacked(msg.sender, _proposalId))] = true;\n    }\n}\n",
  "sourcePath": "/Users/phucld/Projects/blockchain/Fomodoro/contracts/Governance.sol",
  "compiler": {
    "name": "solc",
    "version": "0.8.4+commit.c7e474f2.Emscripten.clang"
  },
  "schemaVersion": "3.4.1",
  "updatedAt": "2021-05-24T19:47:36.596Z",
  "networkType": "ethereum",
  "devdoc": {
    "kind": "dev",
    "methods": {},
    "version": 1
  },
  "userdoc": {
    "kind": "user",
    "methods": {},
    "version": 1
  }
}