{
  "contractName": "Governance",
  "abi": [
    {
      "inputs": [
        {
          "internalType": "uint256",
          "name": "",
          "type": "uint256"
        }
      ],
      "name": "spaceList",
      "outputs": [
        {
          "internalType": "bytes32",
          "name": "",
          "type": "bytes32"
        }
      ],
      "stateMutability": "view",
      "type": "function",
      "constant": true
    },
    {
      "inputs": [],
      "name": "getAllSpaces",
      "outputs": [
        {
          "internalType": "bytes32[]",
          "name": "",
          "type": "bytes32[]"
        }
      ],
      "stateMutability": "view",
      "type": "function",
      "constant": true
    },
    {
      "inputs": [
        {
          "internalType": "bytes32",
          "name": "_spaceKey",
          "type": "bytes32"
        },
        {
          "internalType": "bytes32",
          "name": "_name",
          "type": "bytes32"
        },
        {
          "internalType": "bytes32",
          "name": "_symbol",
          "type": "bytes32"
        },
        {
          "internalType": "address",
          "name": "_tokenAddress",
          "type": "address"
        },
        {
          "internalType": "contract IStrategy",
          "name": "_strategy",
          "type": "address"
        }
      ],
      "name": "newSpace",
      "outputs": [
        {
          "internalType": "bool",
          "name": "success",
          "type": "bool"
        }
      ],
      "stateMutability": "nonpayable",
      "type": "function"
    },
    {
      "inputs": [
        {
          "internalType": "bytes32",
          "name": "_spaceKey",
          "type": "bytes32"
        },
        {
          "internalType": "bytes32",
          "name": "_name",
          "type": "bytes32"
        },
        {
          "internalType": "bytes32",
          "name": "_symbol",
          "type": "bytes32"
        },
        {
          "internalType": "address",
          "name": "_tokenAddress",
          "type": "address"
        },
        {
          "internalType": "contract IStrategy",
          "name": "_strategy",
          "type": "address"
        }
      ],
      "name": "updateSpace",
      "outputs": [
        {
          "internalType": "bool",
          "name": "success",
          "type": "bool"
        }
      ],
      "stateMutability": "nonpayable",
      "type": "function"
    },
    {
      "inputs": [
        {
          "internalType": "bytes32",
          "name": "_spaceKey",
          "type": "bytes32"
        }
      ],
      "name": "getSpace",
      "outputs": [
        {
          "components": [
            {
              "internalType": "bytes32",
              "name": "name",
              "type": "bytes32"
            },
            {
              "internalType": "bytes32",
              "name": "symbol",
              "type": "bytes32"
            },
            {
              "internalType": "address",
              "name": "tokenAddress",
              "type": "address"
            },
            {
              "internalType": "bytes32[]",
              "name": "proposalList",
              "type": "bytes32[]"
            },
            {
              "internalType": "contract IStrategy",
              "name": "strategy",
              "type": "address"
            }
          ],
          "internalType": "struct Governance.Space",
          "name": "",
          "type": "tuple"
        }
      ],
      "stateMutability": "view",
      "type": "function",
      "constant": true
    },
    {
      "inputs": [
        {
          "internalType": "bytes32",
          "name": "_spaceKey",
          "type": "bytes32"
        },
        {
          "internalType": "bytes32",
          "name": "_proposalId",
          "type": "bytes32"
        },
        {
          "internalType": "string",
          "name": "_txHash",
          "type": "string"
        },
        {
          "internalType": "uint256",
          "name": "_startTime",
          "type": "uint256"
        },
        {
          "internalType": "uint256",
          "name": "_endTime",
          "type": "uint256"
        },
        {
          "internalType": "uint256",
          "name": "_blockNumber",
          "type": "uint256"
        },
        {
          "internalType": "uint8",
          "name": "_numberOfChoices",
          "type": "uint8"
        }
      ],
      "name": "newProposal",
      "outputs": [],
      "stateMutability": "nonpayable",
      "type": "function"
    },
    {
      "inputs": [
        {
          "internalType": "bytes32",
          "name": "_proposalId",
          "type": "bytes32"
        }
      ],
      "name": "getProposal",
      "outputs": [
        {
          "components": [
            {
              "internalType": "string",
              "name": "txHash",
              "type": "string"
            },
            {
              "internalType": "uint256",
              "name": "startTime",
              "type": "uint256"
            },
            {
              "internalType": "uint256",
              "name": "endTime",
              "type": "uint256"
            },
            {
              "internalType": "uint256",
              "name": "blockNumber",
              "type": "uint256"
            },
            {
              "internalType": "uint256",
              "name": "numberOfChoices",
              "type": "uint256"
            },
            {
              "internalType": "bytes32[]",
              "name": "voteList",
              "type": "bytes32[]"
            }
          ],
          "internalType": "struct Governance.Proposal",
          "name": "",
          "type": "tuple"
        }
      ],
      "stateMutability": "view",
      "type": "function",
      "constant": true
    },
    {
      "inputs": [],
      "name": "getVotes",
      "outputs": [],
      "stateMutability": "nonpayable",
      "type": "function"
    },
    {
      "inputs": [],
      "name": "vote",
      "outputs": [],
      "stateMutability": "payable",
      "type": "function",
      "payable": true
    }
  ],
  "bytecode": "0x608060405234801561001057600080fd5b506112ec806100206000396000f3fe6080604052600436106100865760003560e01c8063632a9a5211610059578063632a9a5214610147578063785c242a14610151578063e1f0a6061461017a578063e8232fe7146101b7578063ebcf8a82146101f457610086565b80630dc960151461008b57806323015acf146100a2578063430694cf146100df5780634d9623a81461011c575b600080fd5b34801561009757600080fd5b506100a0610231565b005b3480156100ae57600080fd5b506100c960048036038101906100c49190610cac565b610233565b6040516100d69190610f7f565b60405180910390f35b3480156100eb57600080fd5b5061010660048036038101906101019190610b56565b610257565b6040516101139190610f9a565b60405180910390f35b34801561012857600080fd5b50610131610396565b60405161013e9190610f42565b60405180910390f35b61014f6103ee565b005b34801561015d57600080fd5b5061017860048036038101906101739190610bf6565b6103f0565b005b34801561018657600080fd5b506101a1600480360381019061019c9190610b7f565b610540565b6040516101ae9190610f64565b60405180910390f35b3480156101c357600080fd5b506101de60048036038101906101d99190610b56565b6106aa565b6040516101eb9190610fbc565b60405180910390f35b34801561020057600080fd5b5061021b60048036038101906102169190610b7f565b6107ef565b6040516102289190610f64565b60405180910390f35b565b6000818154811061024357600080fd5b906000526020600020016000915090505481565b61025f61094b565b600360008381526020019081526020016000206040518060c001604052908160008201805461028d90611171565b80601f01602080910402602001604051908101604052809291908181526020018280546102b990611171565b80156103065780601f106102db57610100808354040283529160200191610306565b820191906000526020600020905b8154815290600101906020018083116102e957829003601f168201915b50505050508152602001600182015481526020016002820154815260200160038201548152602001600482015481526020016005820180548060200260200160405190810160405280929190818152602001828054801561038657602002820191906000526020600020905b815481526020019060010190808311610372575b5050505050815250509050919050565b606060008054806020026020016040519081016040528092919081815260200182805480156103e457602002820191906000526020600020905b8154815260200190600101908083116103d0575b5050505050905090565b565b600073ffffffffffffffffffffffffffffffffffffffff166002600089815260200190815260200160002060020160009054906101000a900473ffffffffffffffffffffffffffffffffffffffff1673ffffffffffffffffffffffffffffffffffffffff16141561046057600080fd5b8460036000888152602001908152602001600020600001908051906020019061048a929190610981565b508360036000888152602001908152602001600020600101819055508260036000888152602001908152602001600020600201819055508160036000888152602001908152602001600020600301819055508060ff1660036000888152602001908152602001600020600401819055506002600088815260200190815260200160002060030186908060018154018082558091505060019003906000526020600020016000909190919091505550505050505050565b6000846002600088815260200190815260200160002060000181905550836002600088815260200190815260200160002060010181905550826002600088815260200190815260200160002060020160006101000a81548173ffffffffffffffffffffffffffffffffffffffff021916908373ffffffffffffffffffffffffffffffffffffffff160217905550816002600088815260200190815260200160002060040160006101000a81548173ffffffffffffffffffffffffffffffffffffffff021916908373ffffffffffffffffffffffffffffffffffffffff1602179055506000869080600181540180825580915050600190039060005260206000200160009091909190915055336001600088815260200190815260200160002060006101000a81548173ffffffffffffffffffffffffffffffffffffffff021916908373ffffffffffffffffffffffffffffffffffffffff1602179055506001905095945050505050565b6106b2610a07565b600260008381526020019081526020016000206040518060a001604052908160008201548152602001600182015481526020016002820160009054906101000a900473ffffffffffffffffffffffffffffffffffffffff1673ffffffffffffffffffffffffffffffffffffffff1673ffffffffffffffffffffffffffffffffffffffff1681526020016003820180548060200260200160405190810160405280929190818152602001828054801561078957602002820191906000526020600020905b815481526020019060010190808311610775575b505050505081526020016004820160009054906101000a900473ffffffffffffffffffffffffffffffffffffffff1673ffffffffffffffffffffffffffffffffffffffff1673ffffffffffffffffffffffffffffffffffffffff16815250509050919050565b6000853373ffffffffffffffffffffffffffffffffffffffff166001600083815260200190815260200160002060009054906101000a900473ffffffffffffffffffffffffffffffffffffffff1673ffffffffffffffffffffffffffffffffffffffff161461085d57600080fd5b856002600089815260200190815260200160002060000181905550846002600089815260200190815260200160002060010181905550836002600089815260200190815260200160002060020160006101000a81548173ffffffffffffffffffffffffffffffffffffffff021916908373ffffffffffffffffffffffffffffffffffffffff160217905550826002600089815260200190815260200160002060040160006101000a81548173ffffffffffffffffffffffffffffffffffffffff021916908373ffffffffffffffffffffffffffffffffffffffff160217905550600191505095945050505050565b6040518060c001604052806060815260200160008152602001600081526020016000815260200160008152602001606081525090565b82805461098d90611171565b90600052602060002090601f0160209004810192826109af57600085556109f6565b82601f106109c857805160ff19168380011785556109f6565b828001600101855582156109f6579182015b828111156109f55782518255916020019190600101906109da565b5b509050610a039190610a68565b5090565b6040518060a001604052806000801916815260200160008019168152602001600073ffffffffffffffffffffffffffffffffffffffff16815260200160608152602001600073ffffffffffffffffffffffffffffffffffffffff1681525090565b5b80821115610a81576000816000905550600101610a69565b5090565b6000610a98610a9384611003565b610fde565b905082815260208101848484011115610ab057600080fd5b610abb84828561112f565b509392505050565b600081359050610ad281611243565b92915050565b600081359050610ae78161125a565b92915050565b600081359050610afc81611271565b92915050565b600082601f830112610b1357600080fd5b8135610b23848260208601610a85565b91505092915050565b600081359050610b3b81611288565b92915050565b600081359050610b508161129f565b92915050565b600060208284031215610b6857600080fd5b6000610b7684828501610ad8565b91505092915050565b600080600080600060a08688031215610b9757600080fd5b6000610ba588828901610ad8565b9550506020610bb688828901610ad8565b9450506040610bc788828901610ad8565b9350506060610bd888828901610ac3565b9250506080610be988828901610aed565b9150509295509295909350565b600080600080600080600060e0888a031215610c1157600080fd5b6000610c1f8a828b01610ad8565b9750506020610c308a828b01610ad8565b965050604088013567ffffffffffffffff811115610c4d57600080fd5b610c598a828b01610b02565b9550506060610c6a8a828b01610b2c565b9450506080610c7b8a828b01610b2c565b93505060a0610c8c8a828b01610b2c565b92505060c0610c9d8a828b01610b41565b91505092959891949750929550565b600060208284031215610cbe57600080fd5b6000610ccc84828501610b2c565b91505092915050565b6000610ce18383610dc7565b60208301905092915050565b610cf68161109a565b82525050565b6000610d0782611044565b610d118185611067565b9350610d1c83611034565b8060005b83811015610d4d578151610d348882610cd5565b9750610d3f8361105a565b925050600181019050610d20565b5085935050505092915050565b6000610d6582611044565b610d6f8185611078565b9350610d7a83611034565b8060005b83811015610dab578151610d928882610cd5565b9750610d9d8361105a565b925050600181019050610d7e565b5085935050505092915050565b610dc1816110ac565b82525050565b610dd0816110b8565b82525050565b610ddf816110b8565b82525050565b610dee8161110b565b82525050565b6000610dff8261104f565b610e098185611089565b9350610e1981856020860161113e565b610e2281611232565b840191505092915050565b600060c0830160008301518482036000860152610e4a8282610df4565b9150506020830151610e5f6020860182610f33565b506040830151610e726040860182610f33565b506060830151610e856060860182610f33565b506080830151610e986080860182610f33565b5060a083015184820360a0860152610eb08282610cfc565b9150508091505092915050565b600060a083016000830151610ed56000860182610dc7565b506020830151610ee86020860182610dc7565b506040830151610efb6040860182610ced565b5060608301518482036060860152610f138282610cfc565b9150506080830151610f286080860182610de5565b508091505092915050565b610f3c816110f4565b82525050565b60006020820190508181036000830152610f5c8184610d5a565b905092915050565b6000602082019050610f796000830184610db8565b92915050565b6000602082019050610f946000830184610dd6565b92915050565b60006020820190508181036000830152610fb48184610e2d565b905092915050565b60006020820190508181036000830152610fd68184610ebd565b905092915050565b6000610fe8610ff9565b9050610ff482826111a3565b919050565b6000604051905090565b600067ffffffffffffffff82111561101e5761101d611203565b5b61102782611232565b9050602081019050919050565b6000819050602082019050919050565b600081519050919050565b600081519050919050565b6000602082019050919050565b600082825260208201905092915050565b600082825260208201905092915050565b600082825260208201905092915050565b60006110a5826110d4565b9050919050565b60008115159050919050565b6000819050919050565b60006110cd8261109a565b9050919050565b600073ffffffffffffffffffffffffffffffffffffffff82169050919050565b6000819050919050565b600060ff82169050919050565b60006111168261111d565b9050919050565b6000611128826110d4565b9050919050565b82818337600083830152505050565b60005b8381101561115c578082015181840152602081019050611141565b8381111561116b576000848401525b50505050565b6000600282049050600182168061118957607f821691505b6020821081141561119d5761119c6111d4565b5b50919050565b6111ac82611232565b810181811067ffffffffffffffff821117156111cb576111ca611203565b5b80604052505050565b7f4e487b7100000000000000000000000000000000000000000000000000000000600052602260045260246000fd5b7f4e487b7100000000000000000000000000000000000000000000000000000000600052604160045260246000fd5b6000601f19601f8301169050919050565b61124c8161109a565b811461125757600080fd5b50565b611263816110b8565b811461126e57600080fd5b50565b61127a816110c2565b811461128557600080fd5b50565b611291816110f4565b811461129c57600080fd5b50565b6112a8816110fe565b81146112b357600080fd5b5056fea26469706673582212207454139feecd0599cbf3fcc3294e2b33935316335f054c6b2a600de87e6433bb64736f6c63430008040033",
  "immutableReferences": {},
  "source": "// SPDX-License-Identifier: MIT\n\npragma solidity 0.8.4;\n\nimport \"./interfaces/IStrategy.sol\";\n\ncontract Governance {\n    struct Vote {\n        uint256 power;\n        address voter;\n        uint256 choiceIndex;\n    }\n\n    struct Action {\n        bytes32 name;\n    }\n\n    struct Proposal {\n        string txHash;\n        uint256 startTime;\n        uint256 endTime;\n        uint256 blockNumber;\n        uint256 numberOfChoices;\n        bytes32[] voteList;\n    }\n\n    struct Space {\n        bytes32 name;\n        bytes32 symbol;\n        address tokenAddress;\n        bytes32[] proposalList;\n        IStrategy strategy;\n    }\n\n    bytes32[] public spaceList; // list of proposal keys so we can look them up\n    mapping(bytes32 => address) private spaceToOwner;\n    mapping(bytes32 => Space) private spaceStructs; // random access by space key and proposal key\n    mapping(bytes32 => Proposal) private proposalStructs;\n    mapping(bytes32 => Vote) private voteStructs;\n\n    modifier onlyOwnerOf(bytes32 _spaceKey) {\n        require(spaceToOwner[_spaceKey] == msg.sender);\n        _;\n    }\n\n    function getAllSpaces() external view returns (bytes32[] memory) {\n        return spaceList;\n    }\n\n    function newSpace(\n        bytes32 _spaceKey,\n        bytes32 _name,\n        bytes32 _symbol,\n        address _tokenAddress,\n        IStrategy _strategy\n    ) external returns (bool success) {\n        spaceStructs[_spaceKey].name = _name;\n        spaceStructs[_spaceKey].symbol = _symbol;\n        spaceStructs[_spaceKey].tokenAddress = _tokenAddress;\n        spaceStructs[_spaceKey].strategy = _strategy;\n        spaceList.push(_spaceKey);\n        spaceToOwner[_spaceKey] = msg.sender;\n        return true;\n    }\n\n    function updateSpace(\n        bytes32 _spaceKey,\n        bytes32 _name,\n        bytes32 _symbol,\n        address _tokenAddress,\n        IStrategy _strategy\n    ) external onlyOwnerOf(_spaceKey) returns (bool success) {\n        spaceStructs[_spaceKey].name = _name;\n        spaceStructs[_spaceKey].symbol = _symbol;\n        spaceStructs[_spaceKey].tokenAddress = _tokenAddress;\n        spaceStructs[_spaceKey].strategy = _strategy;\n        return true;\n    }\n\n    function getSpace(bytes32 _spaceKey) public view returns (Space memory) {\n        return spaceStructs[_spaceKey];\n    }\n\n    function newProposal(\n        bytes32 _spaceKey,\n        bytes32 _proposalId,\n        string memory _txHash,\n        uint256 _startTime,\n        uint256 _endTime,\n        uint256 _blockNumber,\n        uint8 _numberOfChoices\n    ) public {\n        require(spaceStructs[_spaceKey].tokenAddress != address(0));\n        proposalStructs[_proposalId].txHash = _txHash;\n        proposalStructs[_proposalId].startTime = _startTime;\n        proposalStructs[_proposalId].endTime = _endTime;\n        proposalStructs[_proposalId].blockNumber = _blockNumber;\n        proposalStructs[_proposalId].numberOfChoices = _numberOfChoices;\n        spaceStructs[_spaceKey].proposalList.push(_proposalId);\n    }\n\n    function getProposal(bytes32 _proposalId)\n        public\n        view\n        returns (Proposal memory)\n    {\n        return proposalStructs[_proposalId];\n    }\n\n    function getVotes() public {}\n\n    function vote() public payable {}\n}\n",
  "sourcePath": "/Users/phucld/Projects/blockchain/Fomodoro/contracts/Governance.sol",
  "compiler": {
    "name": "solc",
    "version": "0.8.4+commit.c7e474f2.Emscripten.clang"
  },
  "schemaVersion": "3.4.1",
  "updatedAt": "2021-05-23T18:55:51.283Z",
  "networkType": "ethereum",
  "devdoc": {
    "kind": "dev",
    "methods": {},
    "version": 1
  },
  "userdoc": {
    "kind": "user",
    "methods": {},
    "version": 1
  }
}